{
  "_format": "hh-sol-artifact-1",
  "contractName": "MintCross",
  "sourceName": "contracts/MintCross.sol",
  "abi": [
    {
      "inputs": [
        {
          "internalType": "address",
          "name": "_lzEndpoint",
          "type": "address"
        },
        {
          "internalType": "uint16",
          "name": "_destChainId",
          "type": "uint16"
        }
      ],
      "stateMutability": "nonpayable",
      "type": "constructor"
    },
    {
      "anonymous": false,
      "inputs": [
        {
          "indexed": true,
          "internalType": "address",
          "name": "owner",
          "type": "address"
        },
        {
          "indexed": true,
          "internalType": "address",
          "name": "spender",
          "type": "address"
        },
        {
          "indexed": false,
          "internalType": "uint256",
          "name": "value",
          "type": "uint256"
        }
      ],
      "name": "Approval",
      "type": "event"
    },
    {
      "anonymous": false,
      "inputs": [
        {
          "indexed": false,
          "internalType": "uint16",
          "name": "_srcChainId",
          "type": "uint16"
        },
        {
          "indexed": false,
          "internalType": "bytes",
          "name": "_srcAddress",
          "type": "bytes"
        },
        {
          "indexed": false,
          "internalType": "uint64",
          "name": "_nonce",
          "type": "uint64"
        },
        {
          "indexed": false,
          "internalType": "bytes",
          "name": "_payload",
          "type": "bytes"
        },
        {
          "indexed": false,
          "internalType": "bytes",
          "name": "_reason",
          "type": "bytes"
        }
      ],
      "name": "MessageFailed",
      "type": "event"
    },
    {
      "anonymous": false,
      "inputs": [
        {
          "indexed": true,
          "internalType": "address",
          "name": "previousOwner",
          "type": "address"
        },
        {
          "indexed": true,
          "internalType": "address",
          "name": "newOwner",
          "type": "address"
        }
      ],
      "name": "OwnershipTransferred",
      "type": "event"
    },
    {
      "anonymous": false,
      "inputs": [
        {
          "indexed": false,
          "internalType": "uint16",
          "name": "_srcChainId",
          "type": "uint16"
        },
        {
          "indexed": false,
          "internalType": "bytes",
          "name": "_srcAddress",
          "type": "bytes"
        },
        {
          "indexed": false,
          "internalType": "uint64",
          "name": "_nonce",
          "type": "uint64"
        },
        {
          "indexed": false,
          "internalType": "bytes32",
          "name": "_payloadHash",
          "type": "bytes32"
        }
      ],
      "name": "RetryMessageSuccess",
      "type": "event"
    },
    {
      "anonymous": false,
      "inputs": [
        {
          "indexed": false,
          "internalType": "uint16",
          "name": "_dstChainId",
          "type": "uint16"
        },
        {
          "indexed": false,
          "internalType": "uint16",
          "name": "_type",
          "type": "uint16"
        },
        {
          "indexed": false,
          "internalType": "uint256",
          "name": "_minDstGas",
          "type": "uint256"
        }
      ],
      "name": "SetMinDstGas",
      "type": "event"
    },
    {
      "anonymous": false,
      "inputs": [
        {
          "indexed": false,
          "internalType": "address",
          "name": "precrime",
          "type": "address"
        }
      ],
      "name": "SetPrecrime",
      "type": "event"
    },
    {
      "anonymous": false,
      "inputs": [
        {
          "indexed": false,
          "internalType": "uint16",
          "name": "_remoteChainId",
          "type": "uint16"
        },
        {
          "indexed": false,
          "internalType": "bytes",
          "name": "_path",
          "type": "bytes"
        }
      ],
      "name": "SetTrustedRemote",
      "type": "event"
    },
    {
      "anonymous": false,
      "inputs": [
        {
          "indexed": false,
          "internalType": "uint16",
          "name": "_remoteChainId",
          "type": "uint16"
        },
        {
          "indexed": false,
          "internalType": "bytes",
          "name": "_remoteAddress",
          "type": "bytes"
        }
      ],
      "name": "SetTrustedRemoteAddress",
      "type": "event"
    },
    {
      "anonymous": false,
      "inputs": [
        {
          "indexed": true,
          "internalType": "address",
          "name": "from",
          "type": "address"
        },
        {
          "indexed": true,
          "internalType": "address",
          "name": "to",
          "type": "address"
        },
        {
          "indexed": false,
          "internalType": "uint256",
          "name": "value",
          "type": "uint256"
        }
      ],
      "name": "Transfer",
      "type": "event"
    },
    {
      "inputs": [],
      "name": "DEFAULT_PAYLOAD_SIZE_LIMIT",
      "outputs": [
        {
          "internalType": "uint256",
          "name": "",
          "type": "uint256"
        }
      ],
      "stateMutability": "view",
      "type": "function"
    },
    {
      "inputs": [],
      "name": "PT_SEND",
      "outputs": [
        {
          "internalType": "uint16",
          "name": "",
          "type": "uint16"
        }
      ],
      "stateMutability": "view",
      "type": "function"
    },
    {
      "inputs": [
        {
          "internalType": "address",
          "name": "owner",
          "type": "address"
        },
        {
          "internalType": "address",
          "name": "spender",
          "type": "address"
        }
      ],
      "name": "allowance",
      "outputs": [
        {
          "internalType": "uint256",
          "name": "",
          "type": "uint256"
        }
      ],
      "stateMutability": "view",
      "type": "function"
    },
    {
      "inputs": [
        {
          "internalType": "address",
          "name": "spender",
          "type": "address"
        },
        {
          "internalType": "uint256",
          "name": "amount",
          "type": "uint256"
        }
      ],
      "name": "approve",
      "outputs": [
        {
          "internalType": "bool",
          "name": "",
          "type": "bool"
        }
      ],
      "stateMutability": "nonpayable",
      "type": "function"
    },
    {
      "inputs": [
        {
          "internalType": "address",
          "name": "account",
          "type": "address"
        }
      ],
      "name": "balanceOf",
      "outputs": [
        {
          "internalType": "uint256",
          "name": "",
          "type": "uint256"
        }
      ],
      "stateMutability": "view",
      "type": "function"
    },
    {
      "inputs": [
        {
          "internalType": "uint256",
          "name": "_amount",
          "type": "uint256"
        },
        {
          "internalType": "bytes",
          "name": "_adapterParams",
          "type": "bytes"
        }
      ],
      "name": "bridge",
      "outputs": [],
      "stateMutability": "payable",
      "type": "function"
    },
    {
      "inputs": [
        {
          "internalType": "uint256",
          "name": "_amount",
          "type": "uint256"
        }
      ],
      "name": "buy",
      "outputs": [],
      "stateMutability": "nonpayable",
      "type": "function"
    },
    {
      "inputs": [],
      "name": "decimals",
      "outputs": [
        {
          "internalType": "uint8",
          "name": "",
          "type": "uint8"
        }
      ],
      "stateMutability": "pure",
      "type": "function"
    },
    {
      "inputs": [
        {
          "internalType": "address",
          "name": "spender",
          "type": "address"
        },
        {
          "internalType": "uint256",
          "name": "subtractedValue",
          "type": "uint256"
        }
      ],
      "name": "decreaseAllowance",
      "outputs": [
        {
          "internalType": "bool",
          "name": "",
          "type": "bool"
        }
      ],
      "stateMutability": "nonpayable",
      "type": "function"
    },
    {
      "inputs": [
        {
          "internalType": "uint16",
          "name": "_dstChainId",
          "type": "uint16"
        },
        {
          "internalType": "bytes",
          "name": "_toAddress",
          "type": "bytes"
        },
        {
          "internalType": "uint256",
          "name": "_amount",
          "type": "uint256"
        },
        {
          "internalType": "bool",
          "name": "_useZro",
          "type": "bool"
        },
        {
          "internalType": "bytes",
          "name": "_adapterParams",
          "type": "bytes"
        }
      ],
      "name": "estimateSendFee",
      "outputs": [
        {
          "internalType": "uint256",
          "name": "nativeFee",
          "type": "uint256"
        },
        {
          "internalType": "uint256",
          "name": "zroFee",
          "type": "uint256"
        }
      ],
      "stateMutability": "view",
      "type": "function"
    },
    {
      "inputs": [
        {
          "internalType": "uint16",
          "name": "",
          "type": "uint16"
        },
        {
          "internalType": "bytes",
          "name": "",
          "type": "bytes"
        },
        {
          "internalType": "uint64",
          "name": "",
          "type": "uint64"
        }
      ],
      "name": "failedMessages",
      "outputs": [
        {
          "internalType": "bytes32",
          "name": "",
          "type": "bytes32"
        }
      ],
      "stateMutability": "view",
      "type": "function"
    },
    {
      "inputs": [
        {
          "internalType": "uint16",
          "name": "_srcChainId",
          "type": "uint16"
        },
        {
          "internalType": "bytes",
          "name": "_srcAddress",
          "type": "bytes"
        }
      ],
      "name": "forceResumeReceive",
      "outputs": [],
      "stateMutability": "nonpayable",
      "type": "function"
    },
    {
      "inputs": [
        {
          "internalType": "uint16",
          "name": "_version",
          "type": "uint16"
        },
        {
          "internalType": "uint16",
          "name": "_chainId",
          "type": "uint16"
        },
        {
          "internalType": "address",
          "name": "",
          "type": "address"
        },
        {
          "internalType": "uint256",
          "name": "_configType",
          "type": "uint256"
        }
      ],
      "name": "getConfig",
      "outputs": [
        {
          "internalType": "bytes",
          "name": "",
          "type": "bytes"
        }
      ],
      "stateMutability": "view",
      "type": "function"
    },
    {
      "inputs": [
        {
          "internalType": "uint16",
          "name": "_remoteChainId",
          "type": "uint16"
        }
      ],
      "name": "getTrustedRemoteAddress",
      "outputs": [
        {
          "internalType": "bytes",
          "name": "",
          "type": "bytes"
        }
      ],
      "stateMutability": "view",
      "type": "function"
    },
    {
      "inputs": [
        {
          "internalType": "address",
          "name": "spender",
          "type": "address"
        },
        {
          "internalType": "uint256",
          "name": "addedValue",
          "type": "uint256"
        }
      ],
      "name": "increaseAllowance",
      "outputs": [
        {
          "internalType": "bool",
          "name": "",
          "type": "bool"
        }
      ],
      "stateMutability": "nonpayable",
      "type": "function"
    },
    {
      "inputs": [
        {
          "internalType": "uint16",
          "name": "_srcChainId",
          "type": "uint16"
        },
        {
          "internalType": "bytes",
          "name": "_srcAddress",
          "type": "bytes"
        }
      ],
      "name": "isTrustedRemote",
      "outputs": [
        {
          "internalType": "bool",
          "name": "",
          "type": "bool"
        }
      ],
      "stateMutability": "view",
      "type": "function"
    },
    {
      "inputs": [],
      "name": "lzEndpoint",
      "outputs": [
        {
          "internalType": "contract ILayerZeroEndpoint",
          "name": "",
          "type": "address"
        }
      ],
      "stateMutability": "view",
      "type": "function"
    },
    {
      "inputs": [
        {
          "internalType": "uint16",
          "name": "_srcChainId",
          "type": "uint16"
        },
        {
          "internalType": "bytes",
          "name": "_srcAddress",
          "type": "bytes"
        },
        {
          "internalType": "uint64",
          "name": "_nonce",
          "type": "uint64"
        },
        {
          "internalType": "bytes",
          "name": "_payload",
          "type": "bytes"
        }
      ],
      "name": "lzReceive",
      "outputs": [],
      "stateMutability": "nonpayable",
      "type": "function"
    },
    {
      "inputs": [
        {
          "internalType": "uint16",
          "name": "",
          "type": "uint16"
        },
        {
          "internalType": "uint16",
          "name": "",
          "type": "uint16"
        }
      ],
      "name": "minDstGasLookup",
      "outputs": [
        {
          "internalType": "uint256",
          "name": "",
          "type": "uint256"
        }
      ],
      "stateMutability": "view",
      "type": "function"
    },
    {
      "inputs": [],
      "name": "name",
      "outputs": [
        {
          "internalType": "string",
          "name": "",
          "type": "string"
        }
      ],
      "stateMutability": "view",
      "type": "function"
    },
    {
      "inputs": [
        {
          "internalType": "uint16",
          "name": "_srcChainId",
          "type": "uint16"
        },
        {
          "internalType": "bytes",
          "name": "_srcAddress",
          "type": "bytes"
        },
        {
          "internalType": "uint64",
          "name": "_nonce",
          "type": "uint64"
        },
        {
          "internalType": "bytes",
          "name": "_payload",
          "type": "bytes"
        }
      ],
      "name": "nonblockingLzReceive",
      "outputs": [],
      "stateMutability": "nonpayable",
      "type": "function"
    },
    {
      "inputs": [],
      "name": "owner",
      "outputs": [
        {
          "internalType": "address",
          "name": "",
          "type": "address"
        }
      ],
      "stateMutability": "view",
      "type": "function"
    },
    {
      "inputs": [
        {
          "internalType": "uint16",
          "name": "",
          "type": "uint16"
        }
      ],
      "name": "payloadSizeLimitLookup",
      "outputs": [
        {
          "internalType": "uint256",
          "name": "",
          "type": "uint256"
        }
      ],
      "stateMutability": "view",
      "type": "function"
    },
    {
      "inputs": [],
      "name": "precrime",
      "outputs": [
        {
          "internalType": "address",
          "name": "",
          "type": "address"
        }
      ],
      "stateMutability": "view",
      "type": "function"
    },
    {
      "inputs": [],
      "name": "renounceOwnership",
      "outputs": [],
      "stateMutability": "nonpayable",
      "type": "function"
    },
    {
      "inputs": [
        {
          "internalType": "uint16",
          "name": "_srcChainId",
          "type": "uint16"
        },
        {
          "internalType": "bytes",
          "name": "_srcAddress",
          "type": "bytes"
        },
        {
          "internalType": "uint64",
          "name": "_nonce",
          "type": "uint64"
        },
        {
          "internalType": "bytes",
          "name": "_payload",
          "type": "bytes"
        }
      ],
      "name": "retryMessage",
      "outputs": [],
      "stateMutability": "payable",
      "type": "function"
    },
    {
      "inputs": [],
      "name": "s_maxSupply",
      "outputs": [
        {
          "internalType": "uint256",
          "name": "",
          "type": "uint256"
        }
      ],
      "stateMutability": "view",
      "type": "function"
    },
    {
      "inputs": [
        {
          "internalType": "uint16",
          "name": "_version",
          "type": "uint16"
        },
        {
          "internalType": "uint16",
          "name": "_chainId",
          "type": "uint16"
        },
        {
          "internalType": "uint256",
          "name": "_configType",
          "type": "uint256"
        },
        {
          "internalType": "bytes",
          "name": "_config",
          "type": "bytes"
        }
      ],
      "name": "setConfig",
      "outputs": [],
      "stateMutability": "nonpayable",
      "type": "function"
    },
    {
      "inputs": [
        {
          "internalType": "uint256",
          "name": "_newMaxSupply",
          "type": "uint256"
        }
      ],
      "name": "setMaxSupply",
      "outputs": [],
      "stateMutability": "nonpayable",
      "type": "function"
    },
    {
      "inputs": [
        {
          "internalType": "uint16",
          "name": "_dstChainId",
          "type": "uint16"
        },
        {
          "internalType": "uint16",
          "name": "_packetType",
          "type": "uint16"
        },
        {
          "internalType": "uint256",
          "name": "_minGas",
          "type": "uint256"
        }
      ],
      "name": "setMinDstGas",
      "outputs": [],
      "stateMutability": "nonpayable",
      "type": "function"
    },
    {
      "inputs": [
        {
          "internalType": "uint16",
          "name": "_dstChainId",
          "type": "uint16"
        },
        {
          "internalType": "uint256",
          "name": "_size",
          "type": "uint256"
        }
      ],
      "name": "setPayloadSizeLimit",
      "outputs": [],
      "stateMutability": "nonpayable",
      "type": "function"
    },
    {
      "inputs": [
        {
          "internalType": "address",
          "name": "_precrime",
          "type": "address"
        }
      ],
      "name": "setPrecrime",
      "outputs": [],
      "stateMutability": "nonpayable",
      "type": "function"
    },
    {
      "inputs": [
        {
          "internalType": "uint16",
          "name": "_version",
          "type": "uint16"
        }
      ],
      "name": "setReceiveVersion",
      "outputs": [],
      "stateMutability": "nonpayable",
      "type": "function"
    },
    {
      "inputs": [
        {
          "internalType": "uint16",
          "name": "_version",
          "type": "uint16"
        }
      ],
      "name": "setSendVersion",
      "outputs": [],
      "stateMutability": "nonpayable",
      "type": "function"
    },
    {
      "inputs": [
        {
          "internalType": "uint16",
          "name": "_remoteChainId",
          "type": "uint16"
        },
        {
          "internalType": "bytes",
          "name": "_path",
          "type": "bytes"
        }
      ],
      "name": "setTrustedRemote",
      "outputs": [],
      "stateMutability": "nonpayable",
      "type": "function"
    },
    {
      "inputs": [
        {
          "internalType": "uint16",
          "name": "_remoteChainId",
          "type": "uint16"
        },
        {
          "internalType": "bytes",
          "name": "_remoteAddress",
          "type": "bytes"
        }
      ],
      "name": "setTrustedRemoteAddress",
      "outputs": [],
      "stateMutability": "nonpayable",
      "type": "function"
    },
    {
      "inputs": [],
      "name": "symbol",
      "outputs": [
        {
          "internalType": "string",
          "name": "",
          "type": "string"
        }
      ],
      "stateMutability": "view",
      "type": "function"
    },
    {
      "inputs": [],
      "name": "totalSupply",
      "outputs": [
        {
          "internalType": "uint256",
          "name": "",
          "type": "uint256"
        }
      ],
      "stateMutability": "view",
      "type": "function"
    },
    {
      "inputs": [
        {
          "internalType": "address",
          "name": "recipient",
          "type": "address"
        },
        {
          "internalType": "uint256",
          "name": "amount",
          "type": "uint256"
        }
      ],
      "name": "transfer",
      "outputs": [
        {
          "internalType": "bool",
          "name": "",
          "type": "bool"
        }
      ],
      "stateMutability": "nonpayable",
      "type": "function"
    },
    {
      "inputs": [
        {
          "internalType": "address",
          "name": "sender",
          "type": "address"
        },
        {
          "internalType": "address",
          "name": "recipient",
          "type": "address"
        },
        {
          "internalType": "uint256",
          "name": "amount",
          "type": "uint256"
        }
      ],
      "name": "transferFrom",
      "outputs": [
        {
          "internalType": "bool",
          "name": "",
          "type": "bool"
        }
      ],
      "stateMutability": "nonpayable",
      "type": "function"
    },
    {
      "inputs": [
        {
          "internalType": "address",
          "name": "newOwner",
          "type": "address"
        }
      ],
      "name": "transferOwnership",
      "outputs": [],
      "stateMutability": "nonpayable",
      "type": "function"
    },
    {
      "inputs": [
        {
          "internalType": "uint16",
          "name": "",
          "type": "uint16"
        }
      ],
      "name": "trustedRemoteLookup",
      "outputs": [
        {
          "internalType": "bytes",
          "name": "",
          "type": "bytes"
        }
      ],
      "stateMutability": "view",
      "type": "function"
    }
  ],
  "bytecode": "0x60a06040526200000e62000117565b6200001b90600a620002b0565b6200002c9064e8d4a51000620003a8565b600b553480156200003c57600080fd5b506040516200381a3803806200381a8339810160408190526200005f9162000216565b604051806040016040528060098152602001684d696e7443726f737360b81b815250604051806040016040528060038152602001624d437360e81b8152508380620000b9620000b36200011c60201b60201c565b62000120565b60601b6001600160601b031916608052508151620000df90600990602085019062000170565b508051620000f590600a90602084019062000170565b5050600c805461ffff191661ffff9390931692909217909155506200041d9050565b601290565b3390565b600080546001600160a01b038381166001600160a01b0319831681178455604051919092169283917f8be0079c531659141344cd1fd0a4f28419497f9722a3daafe3b4186f6b6457e09190a35050565b8280546200017e90620003ca565b90600052602060002090601f016020900481019282620001a25760008555620001ed565b82601f10620001bd57805160ff1916838001178555620001ed565b82800160010185558215620001ed579182015b82811115620001ed578251825591602001919060010190620001d0565b50620001fb929150620001ff565b5090565b5b80821115620001fb576000815560010162000200565b6000806040838503121562000229578182fd5b82516001600160a01b038116811462000240578283fd5b602084015190925061ffff8116811462000258578182fd5b809150509250929050565b80825b6001808611620002775750620002a7565b8187048211156200028c576200028c62000407565b808616156200029a57918102915b9490941c93800262000266565b94509492505050565b6000620002c460001960ff851684620002cb565b9392505050565b600082620002dc57506001620002c4565b81620002eb57506000620002c4565b81600181146200030457600281146200030f5762000343565b6001915050620002c4565b60ff84111562000323576200032362000407565b6001841b9150848211156200033c576200033c62000407565b50620002c4565b5060208310610133831016604e8410600b84101617156200037b575081810a8381111562000375576200037562000407565b620002c4565b6200038a848484600162000263565b8086048211156200039f576200039f62000407565b02949350505050565b6000816000190483118215151615620003c557620003c562000407565b500290565b600281046001821680620003df57607f821691505b602082108114156200040157634e487b7160e01b600052602260045260246000fd5b50919050565b634e487b7160e01b600052601160045260246000fd5b60805160601c6133a6620004746000396000818161076b01528181610a2701528181610b5a01528181610c6801528181610e9401528181611463015281816115760152818161199c0152611ed101526133a66000f3fe6080604052600436106102505760003560e01c80637168b9d911610139578063b353aaa7116100b6578063d96a094a1161007a578063d96a094a146106a9578063dd62ed3e146106c9578063df2a5b3b146106e9578063eb8d72b714610709578063f2fde38b14610729578063f5ecbdbc1461074957610250565b8063b353aaa71461062c578063baf3292d14610641578063c446183414610661578063cbed8b9c14610676578063d1deba1f1461069657610250565b806395d89b41116100fd57806395d89b41146105975780639f38369a146105ac578063a457c2d7146105cc578063a6c3d165146105ec578063a9059cbb1461060c57610250565b80637168b9d91461050d5780637533d788146105205780638cfd8f5c146105405780638da5cb5b14610560578063950c8a741461058257610250565b806339509351116101d25780635b8c41e6116101965780635b8c41e6146104635780635d6418471461048357806366ad5c8a146104985780636f8b44b0146104b857806370a08231146104d8578063715018a6146104f857610250565b806339509351146103c15780633d8b38f6146103e15780633f1f4fa41461040157806342d65a8d146104215780634c42899a1461044157610250565b806310ddb1371161021957806310ddb1371461030f57806318160ddd1461032f57806323b872dd146103515780632a205e3d14610371578063313ce5671461039f57610250565b80621d35671461025557806306fdde031461027757806307e0db17146102a2578063095ea7b3146102c25780630df37483146102ef575b600080fd5b34801561026157600080fd5b50610275610270366004612633565b610769565b005b34801561028357600080fd5b5061028c61093f565b60405161029991906129ef565b60405180910390f35b3480156102ae57600080fd5b506102756102bd36600461252a565b6109d1565b3480156102ce57600080fd5b506102e26102dd366004612491565b610a91565b60405161029991906129db565b3480156102fb57600080fd5b5061027561030a36600461287d565b610aae565b34801561031b57600080fd5b5061027561032a36600461252a565b610b04565b34801561033b57600080fd5b50610344610b8f565b60405161029991906129e6565b34801561035d57600080fd5b506102e261036c366004612451565b610b95565b34801561037d57600080fd5b5061039161038c366004612594565b610c25565b60405161029992919061322d565b3480156103ab57600080fd5b506103b4610d07565b604051610299919061323b565b3480156103cd57600080fd5b506102e26103dc366004612491565b610d0c565b3480156103ed57600080fd5b506102e26103fc366004612544565b610d60565b34801561040d57600080fd5b5061034461041c36600461252a565b610e2c565b34801561042d57600080fd5b5061027561043c366004612544565b610e3e565b34801561044d57600080fd5b50610456610efb565b6040516102999190612fc5565b34801561046f57600080fd5b5061034461047e3660046126c3565b610f00565b34801561048f57600080fd5b50610344610f34565b3480156104a457600080fd5b506102756104b3366004612633565b610f3a565b3480156104c457600080fd5b506102756104d3366004612898565b610fe7565b3480156104e457600080fd5b506103446104f33660046123d0565b61102b565b34801561050457600080fd5b5061027561104a565b61027561051b3660046128b0565b611095565b34801561052c57600080fd5b5061028c61053b36600461252a565b61113f565b34801561054c57600080fd5b5061034461055b366004612758565b6111d9565b34801561056c57600080fd5b506105756111f6565b60405161029991906129ae565b34801561058e57600080fd5b50610575611205565b3480156105a357600080fd5b5061028c611214565b3480156105b857600080fd5b5061028c6105c736600461252a565b611223565b3480156105d857600080fd5b506102e26105e7366004612491565b61130a565b3480156105f857600080fd5b50610275610607366004612544565b611383565b34801561061857600080fd5b506102e2610627366004612491565b61144d565b34801561063857600080fd5b50610575611461565b34801561064d57600080fd5b5061027561065c3660046123d0565b611485565b34801561066d57600080fd5b5061034461151a565b34801561068257600080fd5b50610275610691366004612811565b611520565b6102756106a4366004612633565b6115ec565b3480156106b557600080fd5b506102756106c4366004612898565b61178c565b3480156106d557600080fd5b506103446106e4366004612419565b6117c2565b3480156106f557600080fd5b506102756107043660046127d6565b6117ed565b34801561071557600080fd5b50610275610724366004612544565b611883565b34801561073557600080fd5b506102756107443660046123d0565b611914565b34801561075557600080fd5b5061028c61076436600461278a565b611982565b7f00000000000000000000000000000000000000000000000000000000000000006001600160a01b031661079b611a34565b6001600160a01b0316146107ca5760405162461bcd60e51b81526004016107c190612de7565b60405180910390fd5b61ffff8616600090815260016020526040812080546107e8906132f4565b80601f0160208091040260200160405190810160405280929190818152602001828054610814906132f4565b80156108615780601f1061083657610100808354040283529160200191610861565b820191906000526020600020905b81548152906001019060200180831161084457829003601f168201915b5050505050905080518686905014801561087c575060008151115b80156108a457508051602082012060405161089a9088908890612959565b6040518091039020145b6108c05760405162461bcd60e51b81526004016107c190612ece565b6109368787878080601f01602080910402602001604051908101604052809392919081815260200183838082843760009201919091525050604080516020601f8a018190048102820181019092528881528a935091508890889081908401838280828437600092019190915250611a3892505050565b50505050505050565b60606009805461094e906132f4565b80601f016020809104026020016040519081016040528092919081815260200182805461097a906132f4565b80156109c75780601f1061099c576101008083540402835291602001916109c7565b820191906000526020600020905b8154815290600101906020018083116109aa57829003601f168201915b5050505050905090565b6109d9611a34565b6001600160a01b03166109ea6111f6565b6001600160a01b031614610a105760405162461bcd60e51b81526004016107c190612d2c565b6040516307e0db1760e01b81526001600160a01b037f000000000000000000000000000000000000000000000000000000000000000016906307e0db1790610a5c908490600401612fc5565b600060405180830381600087803b158015610a7657600080fd5b505af1158015610a8a573d6000803e3d6000fd5b5050505050565b6000610aa5610a9e611a34565b8484611ab1565b50600192915050565b610ab6611a34565b6001600160a01b0316610ac76111f6565b6001600160a01b031614610aed5760405162461bcd60e51b81526004016107c190612d2c565b61ffff909116600090815260036020526040902055565b610b0c611a34565b6001600160a01b0316610b1d6111f6565b6001600160a01b031614610b435760405162461bcd60e51b81526004016107c190612d2c565b6040516310ddb13760e01b81526001600160a01b037f000000000000000000000000000000000000000000000000000000000000000016906310ddb13790610a5c908490600401612fc5565b60085490565b6000610ba2848484611b65565b6001600160a01b038416600090815260076020526040812081610bc3611a34565b6001600160a01b03166001600160a01b0316815260200190815260200160002054905082811015610c065760405162461bcd60e51b81526004016107c190612ce4565b610c1a85610c12611a34565b858403611ab1565b506001949350505050565b600080600080898989604051602001610c419493929190613048565b60408051601f198184030181529082905263040a7bb160e41b825291506001600160a01b037f000000000000000000000000000000000000000000000000000000000000000016906340a7bb1090610ca7908d90309086908c908c908c90600401612fd4565b604080518083038186803b158015610cbe57600080fd5b505afa158015610cd2573d6000803e3d6000fd5b505050506040513d601f19601f82011682018060405250810190610cf691906128e0565b925092505097509795505050505050565b601290565b6000610aa5610d19611a34565b848460076000610d27611a34565b6001600160a01b03908116825260208083019390935260409182016000908120918b1681529252902054610d5b9190613299565b611ab1565b61ffff831660009081526001602052604081208054829190610d81906132f4565b80601f0160208091040260200160405190810160405280929190818152602001828054610dad906132f4565b8015610dfa5780601f10610dcf57610100808354040283529160200191610dfa565b820191906000526020600020905b815481529060010190602001808311610ddd57829003601f168201915b505050505090508383604051610e11929190612959565b60405180910390208180519060200120149150509392505050565b60036020526000908152604090205481565b610e46611a34565b6001600160a01b0316610e576111f6565b6001600160a01b031614610e7d5760405162461bcd60e51b81526004016107c190612d2c565b6040516342d65a8d60e01b81526001600160a01b037f000000000000000000000000000000000000000000000000000000000000000016906342d65a8d90610ecd9086908690869060040161302a565b600060405180830381600087803b158015610ee757600080fd5b505af1158015610936573d6000803e3d6000fd5b600081565b6005602090815260009384526040808520845180860184018051928152908401958401959095209452929052825290205481565b600b5481565b30610f43611a34565b6001600160a01b031614610f695760405162461bcd60e51b81526004016107c190612a02565b610fdf8686868080601f01602080910402602001604051908101604052809392919081815260200183838082843760009201919091525050604080516020601f890181900481028201810190925287815289935091508790879081908401838280828437600092019190915250611c8992505050565b505050505050565b610fef611a34565b6001600160a01b03166110006111f6565b6001600160a01b0316146110265760405162461bcd60e51b81526004016107c190612d2c565b600b55565b6001600160a01b0381166000908152600660205260409020545b919050565b611052611a34565b6001600160a01b03166110636111f6565b6001600160a01b0316146110895760405162461bcd60e51b81526004016107c190612d2c565b6110936000611cae565b565b60006110a03361102b565b116110bd5760405162461bcd60e51b81526004016107c190612c68565b6110c73384611cfe565b600033846040516020016110dc9291906129c2565b60408051601f19818403018152600c546020601f87018190048102850181019093528584529093506111399261ffff9091169184913391600091908990899081908401838280828437600092019190915250349250611df0915050565b50505050565b60016020526000908152604090208054611158906132f4565b80601f0160208091040260200160405190810160405280929190818152602001828054611184906132f4565b80156111d15780601f106111a6576101008083540402835291602001916111d1565b820191906000526020600020905b8154815290600101906020018083116111b457829003601f168201915b505050505081565b600260209081526000928352604080842090915290825290205481565b6000546001600160a01b031690565b6004546001600160a01b031681565b6060600a805461094e906132f4565b61ffff8116600090815260016020526040812080546060929190611246906132f4565b80601f0160208091040260200160405190810160405280929190818152602001828054611272906132f4565b80156112bf5780601f10611294576101008083540402835291602001916112bf565b820191906000526020600020905b8154815290600101906020018083116112a257829003601f168201915b505050505090508051600014156112e85760405162461bcd60e51b81526004016107c190612a8b565b6113036000601483516112fb91906132b1565b839190611f4d565b9392505050565b60008060076000611319611a34565b6001600160a01b03908116825260208083019390935260409182016000908120918816815292529020549050828110156113655760405162461bcd60e51b81526004016107c190612f14565b611379611370611a34565b85858403611ab1565b5060019392505050565b61138b611a34565b6001600160a01b031661139c6111f6565b6001600160a01b0316146113c25760405162461bcd60e51b81526004016107c190612d2c565b8181306040516020016113d793929190612969565b60408051601f1981840301815291815261ffff8516600090815260016020908152919020825161140c93919290910190612254565b507f8c0400cfe2d1199b1a725c78960bcc2a344d869b80590d0f2bd005db15a572ce8383836040516114409392919061302a565b60405180910390a1505050565b6000610aa561145a611a34565b8484611b65565b7f000000000000000000000000000000000000000000000000000000000000000081565b61148d611a34565b6001600160a01b031661149e6111f6565b6001600160a01b0316146114c45760405162461bcd60e51b81526004016107c190612d2c565b600480546001600160a01b0319166001600160a01b0383161790556040517f5db758e995a17ec1ad84bdef7e8c3293a0bd6179bcce400dff5d4c3d87db726b9061150f9083906129ae565b60405180910390a150565b61271081565b611528611a34565b6001600160a01b03166115396111f6565b6001600160a01b03161461155f5760405162461bcd60e51b81526004016107c190612d2c565b6040516332fb62e760e21b81526001600160a01b037f0000000000000000000000000000000000000000000000000000000000000000169063cbed8b9c906115b390889088908890889088906004016131ff565b600060405180830381600087803b1580156115cd57600080fd5b505af11580156115e1573d6000803e3d6000fd5b505050505050505050565b61ffff8616600090815260056020526040808220905161160f9088908890612959565b90815260408051602092819003830190206001600160401b038716600090815292529020549050806116535760405162461bcd60e51b81526004016107c190612bb7565b808383604051611664929190612959565b6040518091039020146116895760405162461bcd60e51b81526004016107c190612e8d565b61ffff871660009081526005602052604080822090516116ac9089908990612959565b90815260408051602092819003830181206001600160401b038916600090815290845282902093909355601f88018290048202830182019052868252611744918991899089908190840183828082843760009201919091525050604080516020601f8a018190048102820181019092528881528a935091508890889081908401838280828437600092019190915250611c8992505050565b7fc264d91f3adc5588250e1551f547752ca0cfa8f6b530d243b9f9f4cab10ea8e5878787878560405161177b959493929190613077565b60405180910390a150505050505050565b600b54611797610b8f565b11156117b55760405162461bcd60e51b81526004016107c190612ac2565b6117bf3382612015565b50565b6001600160a01b03918216600090815260076020908152604080832093909416825291909152205490565b6117f5611a34565b6001600160a01b03166118066111f6565b6001600160a01b03161461182c5760405162461bcd60e51b81526004016107c190612d2c565b61ffff80841660009081526002602090815260408083209386168352929052819020829055517f9d5c7c0b934da8fefa9c7760c98383778a12dfbfc0c3b3106518f43fb9508ac090611440908590859085906131e0565b61188b611a34565b6001600160a01b031661189c6111f6565b6001600160a01b0316146118c25760405162461bcd60e51b81526004016107c190612d2c565b61ffff831660009081526001602052604090206118e09083836122d8565b507ffa41487ad5d6728f0b19276fa1eddc16558578f5109fc39d2dc33c3230470dab8383836040516114409392919061302a565b61191c611a34565b6001600160a01b031661192d6111f6565b6001600160a01b0316146119535760405162461bcd60e51b81526004016107c190612d2c565b6001600160a01b0381166119795760405162461bcd60e51b81526004016107c190612b2f565b6117bf81611cae565b604051633d7b2f6f60e21b81526060906001600160a01b037f0000000000000000000000000000000000000000000000000000000000000000169063f5ecbdbc906119d79088908890309088906004016131b3565b60006040518083038186803b1580156119ef57600080fd5b505afa158015611a03573d6000803e3d6000fd5b505050506040513d6000823e601f3d908101601f19168201604052611a2b91908101906124bc565b95945050505050565b3390565b600080611a9b5a60966366ad5c8a60e01b89898989604051602401611a60949392919061310c565b60408051601f198184030181529190526020810180516001600160e01b03166001600160e01b031990931692909217909152309291906120e1565b9150915081610fdf57610fdf8686868685612179565b6001600160a01b038316611ad75760405162461bcd60e51b81526004016107c190612e1e565b6001600160a01b038216611afd5760405162461bcd60e51b81526004016107c190612b75565b6001600160a01b0380841660008181526007602090815260408083209487168084529490915290819020849055517f8c5be1e5ebec7d5bd14f71427d1e84f3dd0314c0f7b2291e5b200ac8c7c3b92590611b589085906129e6565b60405180910390a3505050565b6001600160a01b038316611b8b5760405162461bcd60e51b81526004016107c190612da2565b6001600160a01b038216611bb15760405162461bcd60e51b81526004016107c190612a48565b611bbc838383611deb565b6001600160a01b03831660009081526006602052604090205481811015611bf55760405162461bcd60e51b81526004016107c190612bfa565b6001600160a01b03808516600090815260066020526040808220858503905591851681529081208054849290611c2c908490613299565b92505081905550826001600160a01b0316846001600160a01b03167fddf252ad1be2c89b69c2b068fc378daa952ba7f163c4a11628f55a4df523b3ef84604051611c7691906129e6565b60405180910390a3611139848484611deb565b60008082806020019051810190611ca091906123ec565b91509150610fdf8282612015565b600080546001600160a01b038381166001600160a01b0319831681178455604051919092169283917f8be0079c531659141344cd1fd0a4f28419497f9722a3daafe3b4186f6b6457e09190a35050565b6001600160a01b038216611d245760405162461bcd60e51b81526004016107c190612d61565b611d3082600083611deb565b6001600160a01b03821660009081526006602052604090205481811015611d695760405162461bcd60e51b81526004016107c190612aed565b6001600160a01b0383166000908152600660205260408120838303905560088054849290611d989084906132b1565b90915550506040516000906001600160a01b038516907fddf252ad1be2c89b69c2b068fc378daa952ba7f163c4a11628f55a4df523b3ef90611ddb9086906129e6565b60405180910390a3611deb836000845b505050565b61ffff861660009081526001602052604081208054611e0e906132f4565b80601f0160208091040260200160405190810160405280929190818152602001828054611e3a906132f4565b8015611e875780601f10611e5c57610100808354040283529160200191611e87565b820191906000526020600020905b815481529060010190602001808311611e6a57829003601f168201915b50505050509050805160001415611eb05760405162461bcd60e51b81526004016107c190612c94565b611ebb878751612216565b60405162c5803160e81b81526001600160a01b037f0000000000000000000000000000000000000000000000000000000000000000169063c5803100908490611f12908b9086908c908c908c908c906004016130b2565b6000604051808303818588803b158015611f2b57600080fd5b505af1158015611f3f573d6000803e3d6000fd5b505050505050505050505050565b606081611f5b81601f613299565b1015611f795760405162461bcd60e51b81526004016107c190612c40565b611f838284613299565b84511015611fa35760405162461bcd60e51b81526004016107c190612e62565b606082158015611fc2576040519150600082526020820160405261200c565b6040519150601f8416801560200281840101858101878315602002848b0101015b81831015611ffb578051835260209283019201611fe3565b5050858452601f01601f1916604052505b50949350505050565b6001600160a01b03821661203b5760405162461bcd60e51b81526004016107c190612f59565b61204760008383611deb565b80600860008282546120599190613299565b90915550506001600160a01b03821660009081526006602052604081208054839290612086908490613299565b90915550506040516001600160a01b038316906000907fddf252ad1be2c89b69c2b068fc378daa952ba7f163c4a11628f55a4df523b3ef906120c99085906129e6565b60405180910390a36120dd60008383611deb565b5050565b6000606060008060008661ffff166001600160401b0381111561211457634e487b7160e01b600052604160045260246000fd5b6040519080825280601f01601f19166020018201604052801561213e576020820181803683370190505b50905060008087516020890160008d8df191503d925086831115612160578692505b828152826000602083013e909890975095505050505050565b8180519060200120600560008761ffff1661ffff168152602001908152602001600020856040516121aa9190612992565b9081526040805191829003602090810183206001600160401b0388166000908152915220919091557fe183f33de2837795525b4792ca4cd60535bd77c53b7e7030060bfcf5734d6b0c906122079087908790879087908790613155565b60405180910390a15050505050565b61ffff82166000908152600360205260409020548061223457506127105b80821115611deb5760405162461bcd60e51b81526004016107c190612f90565b828054612260906132f4565b90600052602060002090601f01602090048101928261228257600085556122c8565b82601f1061229b57805160ff19168380011785556122c8565b828001600101855582156122c8579182015b828111156122c85782518255916020019190600101906122ad565b506122d492915061234c565b5090565b8280546122e4906132f4565b90600052602060002090601f01602090048101928261230657600085556122c8565b82601f1061231f5782800160ff198235161785556122c8565b828001600101855582156122c8579182015b828111156122c8578235825591602001919060010190612331565b5b808211156122d4576000815560010161234d565b60008083601f840112612372578182fd5b5081356001600160401b03811115612388578182fd5b6020830191508360208285010111156123a057600080fd5b9250929050565b803561ffff8116811461104557600080fd5b80356001600160401b038116811461104557600080fd5b6000602082840312156123e1578081fd5b81356113038161335b565b600080604083850312156123fe578081fd5b82516124098161335b565b6020939093015192949293505050565b6000806040838503121561242b578182fd5b82356124368161335b565b915060208301356124468161335b565b809150509250929050565b600080600060608486031215612465578081fd5b83356124708161335b565b925060208401356124808161335b565b929592945050506040919091013590565b600080604083850312156124a3578182fd5b82356124ae8161335b565b946020939093013593505050565b6000602082840312156124cd578081fd5b81516001600160401b038111156124e2578182fd5b8201601f810184136124f2578182fd5b805161250561250082613272565b613249565b818152856020838501011115612519578384fd5b611a2b8260208301602086016132c8565b60006020828403121561253b578081fd5b611303826123a7565b600080600060408486031215612558578283fd5b612561846123a7565b925060208401356001600160401b0381111561257b578283fd5b61258786828701612361565b9497909650939450505050565b600080600080600080600060a0888a0312156125ae578283fd5b6125b7886123a7565b965060208801356001600160401b03808211156125d2578485fd5b6125de8b838c01612361565b909850965060408a0135955060608a0135915081151582146125fe578485fd5b90935060808901359080821115612613578384fd5b506126208a828b01612361565b989b979a50959850939692959293505050565b6000806000806000806080878903121561264b578182fd5b612654876123a7565b955060208701356001600160401b038082111561266f578384fd5b61267b8a838b01612361565b909750955085915061268f60408a016123b9565b945060608901359150808211156126a4578384fd5b506126b189828a01612361565b979a9699509497509295939492505050565b6000806000606084860312156126d7578081fd5b6126e0846123a7565b925060208401356001600160401b038111156126fa578182fd5b8401601f8101861361270a578182fd5b803561271861250082613272565b81815287602083850101111561272c578384fd5b81602084016020830137908101602001839052925061274f9050604085016123b9565b90509250925092565b6000806040838503121561276a578182fd5b612773836123a7565b9150612781602084016123a7565b90509250929050565b6000806000806080858703121561279f578182fd5b6127a8856123a7565b93506127b6602086016123a7565b925060408501356127c68161335b565b9396929550929360600135925050565b6000806000606084860312156127ea578081fd5b6127f3846123a7565b9250612801602085016123a7565b9150604084013590509250925092565b600080600080600060808688031215612828578283fd5b612831866123a7565b945061283f602087016123a7565b93506040860135925060608601356001600160401b03811115612860578182fd5b61286c88828901612361565b969995985093965092949392505050565b6000806040838503121561288f578182fd5b6124ae836123a7565b6000602082840312156128a9578081fd5b5035919050565b6000806000604084860312156128c4578081fd5b8335925060208401356001600160401b0381111561257b578182fd5b600080604083850312156128f2578182fd5b505080516020909101519092909150565b60008284528282602086013780602084860101526020601f19601f85011685010190509392505050565b600081518084526129458160208601602086016132c8565b601f01601f19169290920160200192915050565b6000828483379101908152919050565b6000838583375060609190911b6bffffffffffffffffffffffff19169101908152601401919050565b600082516129a48184602087016132c8565b9190910192915050565b6001600160a01b0391909116815260200190565b6001600160a01b03929092168252602082015260400190565b901515815260200190565b90815260200190565b600060208252611303602083018461292d565b60208082526026908201527f4e6f6e626c6f636b696e674c7a4170703a2063616c6c6572206d7573742062656040820152650204c7a4170760d41b606082015260800190565b60208082526023908201527f45524332303a207472616e7366657220746f20746865207a65726f206164647260408201526265737360e81b606082015260800190565b6020808252601d908201527f4c7a4170703a206e6f20747275737465642070617468207265636f7264000000604082015260600190565b6020808252601190820152704e6f7420656e6f75676820737570706c7960781b604082015260600190565b60208082526022908201527f45524332303a206275726e20616d6f756e7420657863656564732062616c616e604082015261636560f01b606082015260800190565b60208082526026908201527f4f776e61626c653a206e6577206f776e657220697320746865207a65726f206160408201526564647265737360d01b606082015260800190565b60208082526022908201527f45524332303a20617070726f766520746f20746865207a65726f206164647265604082015261737360f01b606082015260800190565b60208082526023908201527f4e6f6e626c6f636b696e674c7a4170703a206e6f2073746f726564206d65737360408201526261676560e81b606082015260800190565b60208082526026908201527f45524332303a207472616e7366657220616d6f756e7420657863656564732062604082015265616c616e636560d01b606082015260800190565b6020808252600e908201526d736c6963655f6f766572666c6f7760901b604082015260600190565b6020808252601290820152714e6f7420656e6f7567682062616c616e636560701b604082015260600190565b60208082526030908201527f4c7a4170703a2064657374696e6174696f6e20636861696e206973206e6f742060408201526f61207472757374656420736f7572636560801b606082015260800190565b60208082526028908201527f45524332303a207472616e7366657220616d6f756e74206578636565647320616040820152676c6c6f77616e636560c01b606082015260800190565b6020808252818101527f4f776e61626c653a2063616c6c6572206973206e6f7420746865206f776e6572604082015260600190565b60208082526021908201527f45524332303a206275726e2066726f6d20746865207a65726f206164647265736040820152607360f81b606082015260800190565b60208082526025908201527f45524332303a207472616e736665722066726f6d20746865207a65726f206164604082015264647265737360d81b606082015260800190565b6020808252601e908201527f4c7a4170703a20696e76616c696420656e64706f696e742063616c6c65720000604082015260600190565b60208082526024908201527f45524332303a20617070726f76652066726f6d20746865207a65726f206164646040820152637265737360e01b606082015260800190565b602080825260119082015270736c6963655f6f75744f66426f756e647360781b604082015260600190565b60208082526021908201527f4e6f6e626c6f636b696e674c7a4170703a20696e76616c6964207061796c6f616040820152601960fa1b606082015260800190565b60208082526026908201527f4c7a4170703a20696e76616c696420736f757263652073656e64696e6720636f6040820152651b9d1c9858dd60d21b606082015260800190565b60208082526025908201527f45524332303a2064656372656173656420616c6c6f77616e63652062656c6f77604082015264207a65726f60d81b606082015260800190565b6020808252601f908201527f45524332303a206d696e7420746f20746865207a65726f206164647265737300604082015260600190565b6020808252818101527f4c7a4170703a207061796c6f61642073697a6520697320746f6f206c61726765604082015260600190565b61ffff91909116815260200190565b61ffff871681526001600160a01b038616602082015260a0604082018190526000906130029083018761292d565b8515156060840152828103608084015261301d818587612903565b9998505050505050505050565b600061ffff8516825260406020830152611a2b604083018486612903565b600061ffff8616825260606020830152613066606083018587612903565b905082604083015295945050505050565b600061ffff8716825260806020830152613095608083018688612903565b6001600160401b0394909416604083015250606001529392505050565b600061ffff8816825260c060208301526130cf60c083018861292d565b82810360408401526130e1818861292d565b6001600160a01b0387811660608601528616608085015283810360a0850152905061301d818561292d565b600061ffff8616825260806020830152613129608083018661292d565b6001600160401b0385166040840152828103606084015261314a818561292d565b979650505050505050565b600061ffff8716825260a0602083015261317260a083018761292d565b6001600160401b03861660408401528281036060840152613193818661292d565b905082810360808401526131a7818561292d565b98975050505050505050565b61ffff94851681529290931660208301526001600160a01b03166040820152606081019190915260800190565b61ffff9384168152919092166020820152604081019190915260600190565b600061ffff80881683528087166020840152508460408301526080606083015261314a608083018486612903565b918252602082015260400190565b60ff91909116815260200190565b6040518181016001600160401b038111828210171561326a5761326a613345565b604052919050565b60006001600160401b0382111561328b5761328b613345565b50601f01601f191660200190565b600082198211156132ac576132ac61332f565b500190565b6000828210156132c3576132c361332f565b500390565b60005b838110156132e35781810151838201526020016132cb565b838111156111395750506000910152565b60028104600182168061330857607f821691505b6020821081141561332957634e487b7160e01b600052602260045260246000fd5b50919050565b634e487b7160e01b600052601160045260246000fd5b634e487b7160e01b600052604160045260246000fd5b6001600160a01b03811681146117bf57600080fdfea2646970667358221220e00c41ac7996a497de69e4a8e0034454abb17aed7313d6f854cbed6e26b56f1364736f6c63430008000033",
  "linkReferences": {},
  "deployedLinkReferences": {}
}